:100000000C9434000C943E000C943E000C943E0082
:100010000C943E000C943E000C943E000C943E0068
:100020000C943E000C943E000C943E000C943E0058
:100030000C943E000C943E000C943E000C943E0048
:100040000C943E000C943E000C943E000C943E0038
:100050000C943E000C943E000C943E000C943E0028
:100060000C943E000C943E0011241FBECFEFD8E04C
:10007000DEBFCDBF0E9440000C949A000C9400009B
:1000800080E284B900E215B810E4D2E4CFE0B0E039
:10009000F0E0E0E0E12CF12C15B8212F3D2F4C2FA2
:1000A0005B2F6F2F7E2FC701AFEF0E948200122FB0
:1000B000D32FC42FB52FF62FE72F7C01A0E00E948D
:1000C0008E0051F705B910E4D2E4CFE0B0E0F0E0E3
:1000D000E0E0E12CF12C05B9212F3D2F4C2F5B2FB7
:1000E0006F2F7E2FC701AFEF0E948200122FD32FF8
:1000F000C42FB52FF62FE72F7C01A0E00E948E00C1
:1001000051F7C1CF0024A7FD00942A0F301D401DD8
:10011000501D601D701D801D901D08950024A7FDB9
:1001200000942A17300540055005600570058005CC
:0801300090050895F894FFCF3B
:00000001FF
