:100000000C9434000C943E000C943E000C943E0082
:100010000C943E000C943E000C943E000C943E0068
:100020000C943E000C943E000C943E000C943E0058
:100030000C943E000C943E000C943E000C943E0048
:100040000C943E000C943E000C943E000C943E0038
:100050000C943E000C943E000C943E000C943E0028
:100060000C943E000C943E0011241FBECFEFD8E04C
:10007000DEBFCDBF0E9440000C948E000C940000A7
:10008000DF93CF93CDB7DEB728970FB6F894DEBFD6
:100090000FBECDBFE4E2F0E080E280831D821E82CD
:1000A0001F82188619821A821B821C820FC0E5E209
:1000B000F0E080E280838D819E81AF81B8850196DA
:1000C000A11DB11D8D839E83AF83B8878D819E81D5
:1000D000AF81B885803A26E8920721E0A20720E0A8
:1000E000B20728F30EC0E5E2F0E0108289819A8120
:1000F000AB81BC810196A11DB11D89839A83AB831D
:10010000BC8389819A81AB81BC81803A26E89207C1
:1001100021E0A20720E0B20730F3C0CFF894FFCF70
:00000001FF
