S01700004763634170706C69636174696F6E312E737265635B
S11300000C9434000C9446000C9446000C94460066
S11300100C9446000C9446000C9446000C94460044
S11300200C9446000C9446000C9446000C94460034
S11300300C9446000C9446000C9446000C94460024
S11300400C9446000C9446000C9446000C94460014
S11300500C9446000C9446000C9446000C94460004
S11300600C9446000C94460011241FBECFEFD8E038
S1130070DEBFCDBF21E0A0E0B1E001C01D92A230FF
S1130080B207E1F70E9448000C946D000C94000044
S113009017B880E284B981E088B986B1813091F4DF
S11300A087EA91E60197F1F700C0000086B181115B
S11300B009C0809100019091010101969093010182
S11300C0809300018091000190910101029719F43D
S11100D080E285B9E2CF15B8E0CFF894FFCFF7
S9030000FC
